{
  "contractName": "SimpleSidetreeAnchor",
  "abi": [
    {
      "anonymous": false,
      "inputs": [
        {
          "indexed": false,
          "internalType": "bytes32",
          "name": "anchorFileHash",
          "type": "bytes32"
        },
        {
          "indexed": true,
          "internalType": "uint256",
          "name": "transactionNumber",
          "type": "uint256"
        },
        {
          "indexed": false,
          "internalType": "uint256",
          "name": "numberOfOperations",
          "type": "uint256"
        }
      ],
      "name": "Anchor",
      "type": "event"
    },
    {
      "constant": true,
      "inputs": [],
      "name": "transactionNumber",
      "outputs": [
        {
          "internalType": "uint256",
          "name": "",
          "type": "uint256"
        }
      ],
      "payable": false,
      "stateMutability": "view",
      "type": "function"
    },
    {
      "constant": false,
      "inputs": [
        {
          "internalType": "bytes32",
          "name": "_anchorHash",
          "type": "bytes32"
        },
        {
          "internalType": "uint256",
          "name": "_numberOfOperations",
          "type": "uint256"
        }
      ],
      "name": "anchorHash",
      "outputs": [],
      "payable": false,
      "stateMutability": "nonpayable",
      "type": "function"
    }
  ],
  "bytecode": "0x60806040526000805534801561001457600080fd5b50610115806100246000396000f3fe6080604052348015600f57600080fd5b506004361060325760003560e01c80634cd27ad5146037578063aac4c5c414606c575b600080fd5b606a60048036036040811015604b57600080fd5b8101908080359060200190929190803590602001909291905050506088565b005b607260da565b6040518082815260200191505060405180910390f35b6000547fafa278e8ed772648a0f54815c3d0fa589f66454629b3be9405ed2e3d805bbeba8383604051808381526020018281526020019250505060405180910390a26001600054016000819055505050565b6000548156fea265627a7a723158206a6f740e1aa0fca4dc37341c0abad6e8b44273564bd7a5ec3a7003dd3f057cdf64736f6c63430005100032",
  "source": "/*\n * Copyright 2020 - Transmute Industries Inc.\n *\n * Licensed under the Apache License, Version 2.0 (the \"License\");\n * you may not use this file except in compliance with the License.\n * You may obtain a copy of the License at\n *     http://www.apache.org/licenses/LICENSE-2.0\n * Unless required by applicable law or agreed to in writing, software\n * distributed under the License is distributed on an \"AS IS\" BASIS,\n * WITHOUT WARRANTIES OR CONDITIONS OF ANY KIND, either express or implied.\n * See the License for the specific language governing permissions and\n * limitations under the License.\n */\n\npragma solidity 0.5.16;\n\ncontract SimpleSidetreeAnchor {\n    uint256 public transactionNumber = 0;\n\n    event Anchor(\n        bytes32 anchorFileHash,\n        uint256 indexed transactionNumber,\n        uint256 numberOfOperations\n    );\n\n    function anchorHash(bytes32 _anchorHash, uint256 _numberOfOperations)\n        public\n    {\n        emit Anchor(_anchorHash, transactionNumber, _numberOfOperations);\n        transactionNumber = transactionNumber + 1;\n    }\n}",
  "sourcePath": "/Users/johnhopkins/transmute_tech_challenge/server/contracts/SimpleSidetreeAnchor.sol",
  "compiler": {
    "name": "solc",
    "version": "0.5.16+commit.9c3226ce.Emscripten.clang"
  },
  "schemaVersion": "3.3.2",
  "updatedAt": "2020-11-19T07:22:36.522Z",
  "devdoc": {
    "methods": {}
  },
  "userdoc": {
    "methods": {}
  }
}